:20010000378000ACFA000198F810B702F820B758B6EEF511FA000182FA00019817FA01B085
:2001200017F501B0FA000182FA00019817FA01B117F501B1FA000182F500379C37BC020037
:20014000FA000198CA00C500FA0001823C01273101B0B6E837B50FA0FA0001A8F504379C12
:2001600037BC8000F514FA000182B094F521FA000182FA000200B088FA000198FA0001826B
:2001800027F717657C0C7601B7F417EA7C0F37B50190FA0001A827F717657C0D76427840DC
:2001A000B6F217E57C0F27F737B00001B6F627F7274C373B00E0F50F379E37BE8000F50038
:2001C000379F37BF07F6371527FA379DF504379C37BC800037B5014837EA7A0028807A21C3
:2001E00037B500CF37EA7A4437B5040437EA7A4837EA7A4C37B568F037EA7A4A37B570F032
:2002000037EA7A4E37B5FF8837EA7A5437B5783037EA7A5637B5F88137EA081437E5081236
:2002200037B7000137EA081237B5000037EA081827290806FFFF2729080803FF27F5373521
:20024000082427AA7C0437380838B3F217257920272808602000FA000264F522FA0001822D
:200260007A00010437B5408837EA7C007506176A7C0475FE176A7C057533176A7C1675F895
:20028000176A7C1575FE176A7C1737B5810837EA7C1837B5100037EA7C1A37B5000037EADB
:2002A0007C1C7500176A7C1E37354242376A7D4137350202376A7D433735C202376A7D4563
:2002C0003735C242376A7D4837B5010037EA7D2437B5020237EA7C1CFA0002DE27F7288050
:2002E0007C1F29807C1A37053701B70A2A807C1FFFF628807C1F3706B004373B010037FCDB
:04030000F5A527F741
